{
  "_format": "hh-sol-artifact-1",
  "contractName": "LevNFT",
  "sourceName": "contracts/NftContract.sol",
  "abi": [
    {
      "inputs": [],
      "stateMutability": "payable",
      "type": "constructor"
    },
    {
      "inputs": [
        {
          "internalType": "address",
          "name": "sender",
          "type": "address"
        },
        {
          "internalType": "uint256",
          "name": "tokenId",
          "type": "uint256"
        },
        {
          "internalType": "address",
          "name": "owner",
          "type": "address"
        }
      ],
      "name": "ERC721IncorrectOwner",
      "type": "error"
    },
    {
      "inputs": [
        {
          "internalType": "address",
          "name": "operator",
          "type": "address"
        },
        {
          "internalType": "uint256",
          "name": "tokenId",
          "type": "uint256"
        }
      ],
      "name": "ERC721InsufficientApproval",
      "type": "error"
    },
    {
      "inputs": [
        {
          "internalType": "address",
          "name": "approver",
          "type": "address"
        }
      ],
      "name": "ERC721InvalidApprover",
      "type": "error"
    },
    {
      "inputs": [
        {
          "internalType": "address",
          "name": "operator",
          "type": "address"
        }
      ],
      "name": "ERC721InvalidOperator",
      "type": "error"
    },
    {
      "inputs": [
        {
          "internalType": "address",
          "name": "owner",
          "type": "address"
        }
      ],
      "name": "ERC721InvalidOwner",
      "type": "error"
    },
    {
      "inputs": [
        {
          "internalType": "address",
          "name": "receiver",
          "type": "address"
        }
      ],
      "name": "ERC721InvalidReceiver",
      "type": "error"
    },
    {
      "inputs": [
        {
          "internalType": "address",
          "name": "sender",
          "type": "address"
        }
      ],
      "name": "ERC721InvalidSender",
      "type": "error"
    },
    {
      "inputs": [
        {
          "internalType": "uint256",
          "name": "tokenId",
          "type": "uint256"
        }
      ],
      "name": "ERC721NonexistentToken",
      "type": "error"
    },
    {
      "inputs": [
        {
          "internalType": "address",
          "name": "owner",
          "type": "address"
        }
      ],
      "name": "OwnableInvalidOwner",
      "type": "error"
    },
    {
      "inputs": [
        {
          "internalType": "address",
          "name": "account",
          "type": "address"
        }
      ],
      "name": "OwnableUnauthorizedAccount",
      "type": "error"
    },
    {
      "anonymous": false,
      "inputs": [
        {
          "indexed": true,
          "internalType": "address",
          "name": "owner",
          "type": "address"
        },
        {
          "indexed": true,
          "internalType": "address",
          "name": "approved",
          "type": "address"
        },
        {
          "indexed": true,
          "internalType": "uint256",
          "name": "tokenId",
          "type": "uint256"
        }
      ],
      "name": "Approval",
      "type": "event"
    },
    {
      "anonymous": false,
      "inputs": [
        {
          "indexed": true,
          "internalType": "address",
          "name": "owner",
          "type": "address"
        },
        {
          "indexed": true,
          "internalType": "address",
          "name": "operator",
          "type": "address"
        },
        {
          "indexed": false,
          "internalType": "bool",
          "name": "approved",
          "type": "bool"
        }
      ],
      "name": "ApprovalForAll",
      "type": "event"
    },
    {
      "anonymous": false,
      "inputs": [
        {
          "indexed": true,
          "internalType": "address",
          "name": "previousOwner",
          "type": "address"
        },
        {
          "indexed": true,
          "internalType": "address",
          "name": "newOwner",
          "type": "address"
        }
      ],
      "name": "OwnershipTransferred",
      "type": "event"
    },
    {
      "anonymous": false,
      "inputs": [
        {
          "indexed": true,
          "internalType": "address",
          "name": "from",
          "type": "address"
        },
        {
          "indexed": true,
          "internalType": "address",
          "name": "to",
          "type": "address"
        },
        {
          "indexed": true,
          "internalType": "uint256",
          "name": "tokenId",
          "type": "uint256"
        }
      ],
      "name": "Transfer",
      "type": "event"
    },
    {
      "inputs": [
        {
          "internalType": "address",
          "name": "to",
          "type": "address"
        },
        {
          "internalType": "uint256",
          "name": "tokenId",
          "type": "uint256"
        }
      ],
      "name": "approve",
      "outputs": [],
      "stateMutability": "nonpayable",
      "type": "function"
    },
    {
      "inputs": [
        {
          "internalType": "address",
          "name": "owner",
          "type": "address"
        }
      ],
      "name": "balanceOf",
      "outputs": [
        {
          "internalType": "uint256",
          "name": "",
          "type": "uint256"
        }
      ],
      "stateMutability": "view",
      "type": "function"
    },
    {
      "inputs": [
        {
          "internalType": "uint256",
          "name": "tokenId",
          "type": "uint256"
        }
      ],
      "name": "getApproved",
      "outputs": [
        {
          "internalType": "address",
          "name": "",
          "type": "address"
        }
      ],
      "stateMutability": "view",
      "type": "function"
    },
    {
      "inputs": [
        {
          "internalType": "address",
          "name": "owner",
          "type": "address"
        },
        {
          "internalType": "address",
          "name": "operator",
          "type": "address"
        }
      ],
      "name": "isApprovedForAll",
      "outputs": [
        {
          "internalType": "bool",
          "name": "",
          "type": "bool"
        }
      ],
      "stateMutability": "view",
      "type": "function"
    },
    {
      "inputs": [],
      "name": "isMintEnabled",
      "outputs": [
        {
          "internalType": "bool",
          "name": "",
          "type": "bool"
        }
      ],
      "stateMutability": "view",
      "type": "function"
    },
    {
      "inputs": [],
      "name": "maxSupply",
      "outputs": [
        {
          "internalType": "uint256",
          "name": "",
          "type": "uint256"
        }
      ],
      "stateMutability": "view",
      "type": "function"
    },
    {
      "inputs": [],
      "name": "mint",
      "outputs": [],
      "stateMutability": "payable",
      "type": "function"
    },
    {
      "inputs": [],
      "name": "mintPrice",
      "outputs": [
        {
          "internalType": "uint256",
          "name": "",
          "type": "uint256"
        }
      ],
      "stateMutability": "view",
      "type": "function"
    },
    {
      "inputs": [
        {
          "internalType": "address",
          "name": "",
          "type": "address"
        }
      ],
      "name": "mintedWallets",
      "outputs": [
        {
          "internalType": "uint256",
          "name": "",
          "type": "uint256"
        }
      ],
      "stateMutability": "view",
      "type": "function"
    },
    {
      "inputs": [],
      "name": "name",
      "outputs": [
        {
          "internalType": "string",
          "name": "",
          "type": "string"
        }
      ],
      "stateMutability": "view",
      "type": "function"
    },
    {
      "inputs": [],
      "name": "owner",
      "outputs": [
        {
          "internalType": "address",
          "name": "",
          "type": "address"
        }
      ],
      "stateMutability": "view",
      "type": "function"
    },
    {
      "inputs": [
        {
          "internalType": "uint256",
          "name": "tokenId",
          "type": "uint256"
        }
      ],
      "name": "ownerOf",
      "outputs": [
        {
          "internalType": "address",
          "name": "",
          "type": "address"
        }
      ],
      "stateMutability": "view",
      "type": "function"
    },
    {
      "inputs": [],
      "name": "renounceOwnership",
      "outputs": [],
      "stateMutability": "nonpayable",
      "type": "function"
    },
    {
      "inputs": [
        {
          "internalType": "address",
          "name": "from",
          "type": "address"
        },
        {
          "internalType": "address",
          "name": "to",
          "type": "address"
        },
        {
          "internalType": "uint256",
          "name": "tokenId",
          "type": "uint256"
        }
      ],
      "name": "safeTransferFrom",
      "outputs": [],
      "stateMutability": "nonpayable",
      "type": "function"
    },
    {
      "inputs": [
        {
          "internalType": "address",
          "name": "from",
          "type": "address"
        },
        {
          "internalType": "address",
          "name": "to",
          "type": "address"
        },
        {
          "internalType": "uint256",
          "name": "tokenId",
          "type": "uint256"
        },
        {
          "internalType": "bytes",
          "name": "data",
          "type": "bytes"
        }
      ],
      "name": "safeTransferFrom",
      "outputs": [],
      "stateMutability": "nonpayable",
      "type": "function"
    },
    {
      "inputs": [
        {
          "internalType": "address",
          "name": "operator",
          "type": "address"
        },
        {
          "internalType": "bool",
          "name": "approved",
          "type": "bool"
        }
      ],
      "name": "setApprovalForAll",
      "outputs": [],
      "stateMutability": "nonpayable",
      "type": "function"
    },
    {
      "inputs": [
        {
          "internalType": "uint256",
          "name": "maxSupply_",
          "type": "uint256"
        }
      ],
      "name": "setMaxSupply",
      "outputs": [],
      "stateMutability": "nonpayable",
      "type": "function"
    },
    {
      "inputs": [
        {
          "internalType": "bytes4",
          "name": "interfaceId",
          "type": "bytes4"
        }
      ],
      "name": "supportsInterface",
      "outputs": [
        {
          "internalType": "bool",
          "name": "",
          "type": "bool"
        }
      ],
      "stateMutability": "view",
      "type": "function"
    },
    {
      "inputs": [],
      "name": "symbol",
      "outputs": [
        {
          "internalType": "string",
          "name": "",
          "type": "string"
        }
      ],
      "stateMutability": "view",
      "type": "function"
    },
    {
      "inputs": [],
      "name": "toggleIsMintEnabled",
      "outputs": [],
      "stateMutability": "nonpayable",
      "type": "function"
    },
    {
      "inputs": [
        {
          "internalType": "uint256",
          "name": "tokenId",
          "type": "uint256"
        }
      ],
      "name": "tokenURI",
      "outputs": [
        {
          "internalType": "string",
          "name": "",
          "type": "string"
        }
      ],
      "stateMutability": "view",
      "type": "function"
    },
    {
      "inputs": [],
      "name": "totalSupply",
      "outputs": [
        {
          "internalType": "uint256",
          "name": "",
          "type": "uint256"
        }
      ],
      "stateMutability": "view",
      "type": "function"
    },
    {
      "inputs": [
        {
          "internalType": "address",
          "name": "from",
          "type": "address"
        },
        {
          "internalType": "address",
          "name": "to",
          "type": "address"
        },
        {
          "internalType": "uint256",
          "name": "tokenId",
          "type": "uint256"
        }
      ],
      "name": "transferFrom",
      "outputs": [],
      "stateMutability": "nonpayable",
      "type": "function"
    },
    {
      "inputs": [
        {
          "internalType": "address",
          "name": "newOwner",
          "type": "address"
        }
      ],
      "name": "transferOwnership",
      "outputs": [],
      "stateMutability": "nonpayable",
      "type": "function"
    }
  ],
  "bytecode": "0x6080604052660aa87bee538000600755336040518060400160405280600881526020017f4c4556204d494e540000000000000000000000000000000000000000000000008152506040518060400160405280600681526020017f4c45564d4e540000000000000000000000000000000000000000000000000000815250816000908161008b9190610443565b50806001908161009b9190610443565b505050600073ffffffffffffffffffffffffffffffffffffffff168173ffffffffffffffffffffffffffffffffffffffff16036101105760006040517f1e4fbdf70000000000000000000000000000000000000000000000000000000081526004016101079190610556565b60405180910390fd5b61011f8161012d60201b60201c565b506003600981905550610571565b6000600660009054906101000a900473ffffffffffffffffffffffffffffffffffffffff16905081600660006101000a81548173ffffffffffffffffffffffffffffffffffffffff021916908373ffffffffffffffffffffffffffffffffffffffff1602179055508173ffffffffffffffffffffffffffffffffffffffff168173ffffffffffffffffffffffffffffffffffffffff167f8be0079c531659141344cd1fd0a4f28419497f9722a3daafe3b4186f6b6457e060405160405180910390a35050565b600081519050919050565b7f4e487b7100000000000000000000000000000000000000000000000000000000600052604160045260246000fd5b7f4e487b7100000000000000000000000000000000000000000000000000000000600052602260045260246000fd5b6000600282049050600182168061027457607f821691505b6020821081036102875761028661022d565b5b50919050565b60008190508160005260206000209050919050565b60006020601f8301049050919050565b600082821b905092915050565b6000600883026102ef7fffffffffffffffffffffffffffffffffffffffffffffffffffffffffffffffff826102b2565b6102f986836102b2565b95508019841693508086168417925050509392505050565b6000819050919050565b6000819050919050565b600061034061033b61033684610311565b61031b565b610311565b9050919050565b6000819050919050565b61035a83610325565b61036e61036682610347565b8484546102bf565b825550505050565b600090565b610383610376565b61038e818484610351565b505050565b5b818110156103b2576103a760008261037b565b600181019050610394565b5050565b601f8211156103f7576103c88161028d565b6103d1846102a2565b810160208510156103e0578190505b6103f46103ec856102a2565b830182610393565b50505b505050565b600082821c905092915050565b600061041a600019846008026103fc565b1980831691505092915050565b60006104338383610409565b9150826002028217905092915050565b61044c826101f3565b67ffffffffffffffff811115610465576104646101fe565b5b61046f825461025c565b61047a8282856103b6565b600060209050601f8311600181146104ad576000841561049b578287015190505b6104a58582610427565b86555061050d565b601f1984166104bb8661028d565b60005b828110156104e3578489015182556001820191506020850194506020810190506104be565b8683101561050057848901516104fc601f891682610409565b8355505b6001600288020188555050505b505050505050565b600073ffffffffffffffffffffffffffffffffffffffff82169050919050565b600061054082610515565b9050919050565b61055081610535565b82525050565b600060208201905061056b6000830184610547565b92915050565b612709806105806000396000f3fe60806040526004361061014b5760003560e01c806370a08231116100b6578063b88d4fde1161006f578063b88d4fde14610471578063c40732171461049a578063c87b56dd146104b1578063d5abeb01146104ee578063e985e9c514610519578063f2fde38b146105565761014b565b806370a0823114610361578063715018a61461039e5780638da5cb5b146103b557806395d89b41146103e0578063a22cb4651461040b578063ada7c4ed146104345761014b565b806323b872dd1161010857806323b872dd14610253578063346de50a1461027c57806342842e0e146102a75780636352211e146102d05780636817c76c1461030d5780636f8b44b0146103385761014b565b806301ffc9a71461015057806306fdde031461018d578063081812fc146101b8578063095ea7b3146101f55780631249c58b1461021e57806318160ddd14610228575b600080fd5b34801561015c57600080fd5b5061017760048036038101906101729190611d2c565b61057f565b6040516101849190611d74565b60405180910390f35b34801561019957600080fd5b506101a2610661565b6040516101af9190611e1f565b60405180910390f35b3480156101c457600080fd5b506101df60048036038101906101da9190611e77565b6106f3565b6040516101ec9190611ee5565b60405180910390f35b34801561020157600080fd5b5061021c60048036038101906102179190611f2c565b61070f565b005b610226610725565b005b34801561023457600080fd5b5061023d610901565b60405161024a9190611f7b565b60405180910390f35b34801561025f57600080fd5b5061027a60048036038101906102759190611f96565b610907565b005b34801561028857600080fd5b50610291610a09565b60405161029e9190611d74565b60405180910390f35b3480156102b357600080fd5b506102ce60048036038101906102c99190611f96565b610a1c565b005b3480156102dc57600080fd5b506102f760048036038101906102f29190611e77565b610a3c565b6040516103049190611ee5565b60405180910390f35b34801561031957600080fd5b50610322610a4e565b60405161032f9190611f7b565b60405180910390f35b34801561034457600080fd5b5061035f600480360381019061035a9190611e77565b610a54565b005b34801561036d57600080fd5b5061038860048036038101906103839190611fe9565b610a66565b6040516103959190611f7b565b60405180910390f35b3480156103aa57600080fd5b506103b3610b20565b005b3480156103c157600080fd5b506103ca610b34565b6040516103d79190611ee5565b60405180910390f35b3480156103ec57600080fd5b506103f5610b5e565b6040516104029190611e1f565b60405180910390f35b34801561041757600080fd5b50610432600480360381019061042d9190612042565b610bf0565b005b34801561044057600080fd5b5061045b60048036038101906104569190611fe9565b610c06565b6040516104689190611f7b565b60405180910390f35b34801561047d57600080fd5b50610498600480360381019061049391906121b7565b610c1e565b005b3480156104a657600080fd5b506104af610c3b565b005b3480156104bd57600080fd5b506104d860048036038101906104d39190611e77565b610c6f565b6040516104e59190611e1f565b60405180910390f35b3480156104fa57600080fd5b50610503610cd8565b6040516105109190611f7b565b60405180910390f35b34801561052557600080fd5b50610540600480360381019061053b919061223a565b610cde565b60405161054d9190611d74565b60405180910390f35b34801561056257600080fd5b5061057d60048036038101906105789190611fe9565b610d72565b005b60007f80ac58cd000000000000000000000000000000000000000000000000000000007bffffffffffffffffffffffffffffffffffffffffffffffffffffffff1916827bffffffffffffffffffffffffffffffffffffffffffffffffffffffff1916148061064a57507f5b5e139f000000000000000000000000000000000000000000000000000000007bffffffffffffffffffffffffffffffffffffffffffffffffffffffff1916827bffffffffffffffffffffffffffffffffffffffffffffffffffffffff1916145b8061065a575061065982610df8565b5b9050919050565b606060008054610670906122a9565b80601f016020809104026020016040519081016040528092919081815260200182805461069c906122a9565b80156106e95780601f106106be576101008083540402835291602001916106e9565b820191906000526020600020905b8154815290600101906020018083116106cc57829003601f168201915b5050505050905090565b60006106fe82610e62565b5061070882610eea565b9050919050565b610721828261071c610f27565b610f2f565b5050565b600a60009054906101000a900460ff16610774576040517f08c379a000000000000000000000000000000000000000000000000000000000815260040161076b90612326565b60405180910390fd5b6001600b60003373ffffffffffffffffffffffffffffffffffffffff1673ffffffffffffffffffffffffffffffffffffffff16815260200190815260200160002054106107f6576040517f08c379a00000000000000000000000000000000000000000000000000000000081526004016107ed90612392565b60405180910390fd5b600754341461083a576040517f08c379a0000000000000000000000000000000000000000000000000000000008152600401610831906123fe565b60405180910390fd5b60085460095411610880576040517f08c379a00000000000000000000000000000000000000000000000000000000081526004016108779061246a565b60405180910390fd5b600b60003373ffffffffffffffffffffffffffffffffffffffff1673ffffffffffffffffffffffffffffffffffffffff16815260200190815260200160002060008154809291906108d0906124b9565b9190505550600860008154809291906108e8906124b9565b9190505550600060085490506108fe3382610f41565b50565b60085481565b600073ffffffffffffffffffffffffffffffffffffffff168273ffffffffffffffffffffffffffffffffffffffff16036109795760006040517f64a0ae920000000000000000000000000000000000000000000000000000000081526004016109709190611ee5565b60405180910390fd5b600061098d8383610988610f27565b610f5f565b90508373ffffffffffffffffffffffffffffffffffffffff168173ffffffffffffffffffffffffffffffffffffffff1614610a03578382826040517f64283d7b0000000000000000000000000000000000000000000000000000000081526004016109fa93929190612501565b60405180910390fd5b50505050565b600a60009054906101000a900460ff1681565b610a3783838360405180602001604052806000815250610c1e565b505050565b6000610a4782610e62565b9050919050565b60075481565b610a5c611179565b8060098190555050565b60008073ffffffffffffffffffffffffffffffffffffffff168273ffffffffffffffffffffffffffffffffffffffff1603610ad95760006040517f89c62b64000000000000000000000000000000000000000000000000000000008152600401610ad09190611ee5565b60405180910390fd5b600360008373ffffffffffffffffffffffffffffffffffffffff1673ffffffffffffffffffffffffffffffffffffffff168152602001908152602001600020549050919050565b610b28611179565b610b326000611200565b565b6000600660009054906101000a900473ffffffffffffffffffffffffffffffffffffffff16905090565b606060018054610b6d906122a9565b80601f0160208091040260200160405190810160405280929190818152602001828054610b99906122a9565b8015610be65780601f10610bbb57610100808354040283529160200191610be6565b820191906000526020600020905b815481529060010190602001808311610bc957829003601f168201915b5050505050905090565b610c02610bfb610f27565b83836112c6565b5050565b600b6020528060005260406000206000915090505481565b610c29848484610907565b610c3584848484611435565b50505050565b610c43611179565b600a60009054906101000a900460ff1615600a60006101000a81548160ff021916908315150217905550565b6060610c7a82610e62565b506000610c856115ec565b90506000815111610ca55760405180602001604052806000815250610cd0565b80610caf84611603565b604051602001610cc0929190612574565b6040516020818303038152906040525b915050919050565b60095481565b6000600560008473ffffffffffffffffffffffffffffffffffffffff1673ffffffffffffffffffffffffffffffffffffffff16815260200190815260200160002060008373ffffffffffffffffffffffffffffffffffffffff1673ffffffffffffffffffffffffffffffffffffffff16815260200190815260200160002060009054906101000a900460ff16905092915050565b610d7a611179565b600073ffffffffffffffffffffffffffffffffffffffff168173ffffffffffffffffffffffffffffffffffffffff1603610dec5760006040517f1e4fbdf7000000000000000000000000000000000000000000000000000000008152600401610de39190611ee5565b60405180910390fd5b610df581611200565b50565b60007f01ffc9a7000000000000000000000000000000000000000000000000000000007bffffffffffffffffffffffffffffffffffffffffffffffffffffffff1916827bffffffffffffffffffffffffffffffffffffffffffffffffffffffff1916149050919050565b600080610e6e836116d1565b9050600073ffffffffffffffffffffffffffffffffffffffff168173ffffffffffffffffffffffffffffffffffffffff1603610ee157826040517f7e273289000000000000000000000000000000000000000000000000000000008152600401610ed89190611f7b565b60405180910390fd5b80915050919050565b60006004600083815260200190815260200160002060009054906101000a900473ffffffffffffffffffffffffffffffffffffffff169050919050565b600033905090565b610f3c838383600161170e565b505050565b610f5b8282604051806020016040528060008152506118d3565b5050565b600080610f6b846116d1565b9050600073ffffffffffffffffffffffffffffffffffffffff168373ffffffffffffffffffffffffffffffffffffffff1614610fad57610fac8184866118ef565b5b600073ffffffffffffffffffffffffffffffffffffffff168173ffffffffffffffffffffffffffffffffffffffff161461103e57610fef60008560008061170e565b6001600360008373ffffffffffffffffffffffffffffffffffffffff1673ffffffffffffffffffffffffffffffffffffffff168152602001908152602001600020600082825403925050819055505b600073ffffffffffffffffffffffffffffffffffffffff168573ffffffffffffffffffffffffffffffffffffffff16146110c1576001600360008773ffffffffffffffffffffffffffffffffffffffff1673ffffffffffffffffffffffffffffffffffffffff168152602001908152602001600020600082825401925050819055505b846002600086815260200190815260200160002060006101000a81548173ffffffffffffffffffffffffffffffffffffffff021916908373ffffffffffffffffffffffffffffffffffffffff160217905550838573ffffffffffffffffffffffffffffffffffffffff168273ffffffffffffffffffffffffffffffffffffffff167fddf252ad1be2c89b69c2b068fc378daa952ba7f163c4a11628f55a4df523b3ef60405160405180910390a4809150509392505050565b611181610f27565b73ffffffffffffffffffffffffffffffffffffffff1661119f610b34565b73ffffffffffffffffffffffffffffffffffffffff16146111fe576111c2610f27565b6040517f118cdaa70000000000000000000000000000000000000000000000000000000081526004016111f59190611ee5565b60405180910390fd5b565b6000600660009054906101000a900473ffffffffffffffffffffffffffffffffffffffff16905081600660006101000a81548173ffffffffffffffffffffffffffffffffffffffff021916908373ffffffffffffffffffffffffffffffffffffffff1602179055508173ffffffffffffffffffffffffffffffffffffffff168173ffffffffffffffffffffffffffffffffffffffff167f8be0079c531659141344cd1fd0a4f28419497f9722a3daafe3b4186f6b6457e060405160405180910390a35050565b600073ffffffffffffffffffffffffffffffffffffffff168273ffffffffffffffffffffffffffffffffffffffff160361133757816040517f5b08ba1800000000000000000000000000000000000000000000000000000000815260040161132e9190611ee5565b60405180910390fd5b80600560008573ffffffffffffffffffffffffffffffffffffffff1673ffffffffffffffffffffffffffffffffffffffff16815260200190815260200160002060008473ffffffffffffffffffffffffffffffffffffffff1673ffffffffffffffffffffffffffffffffffffffff16815260200190815260200160002060006101000a81548160ff0219169083151502179055508173ffffffffffffffffffffffffffffffffffffffff168373ffffffffffffffffffffffffffffffffffffffff167f17307eab39ab6107e8899845ad3d59bd9653f200f220920489ca2b5937696c31836040516114289190611d74565b60405180910390a3505050565b60008373ffffffffffffffffffffffffffffffffffffffff163b11156115e6578273ffffffffffffffffffffffffffffffffffffffff1663150b7a02611479610f27565b8685856040518563ffffffff1660e01b815260040161149b94939291906125ed565b6020604051808303816000875af19250505080156114d757506040513d601f19601f820116820180604052508101906114d4919061264e565b60015b61155b573d8060008114611507576040519150601f19603f3d011682016040523d82523d6000602084013e61150c565b606091505b50600081510361155357836040517f64a0ae9200000000000000000000000000000000000000000000000000000000815260040161154a9190611ee5565b60405180910390fd5b805181602001fd5b63150b7a0260e01b7bffffffffffffffffffffffffffffffffffffffffffffffffffffffff1916817bffffffffffffffffffffffffffffffffffffffffffffffffffffffff1916146115e457836040517f64a0ae920000000000000000000000000000000000000000000000000000000081526004016115db9190611ee5565b60405180910390fd5b505b50505050565b606060405180602001604052806000815250905090565b606060006001611612846119b3565b01905060008167ffffffffffffffff8111156116315761163061208c565b5b6040519080825280601f01601f1916602001820160405280156116635781602001600182028036833780820191505090505b509050600082602001820190505b6001156116c6578080600190039150507f3031323334353637383961626364656600000000000000000000000000000000600a86061a8153600a85816116ba576116b961267b565b5b04945060008503611671575b819350505050919050565b60006002600083815260200190815260200160002060009054906101000a900473ffffffffffffffffffffffffffffffffffffffff169050919050565b80806117475750600073ffffffffffffffffffffffffffffffffffffffff168273ffffffffffffffffffffffffffffffffffffffff1614155b1561187b57600061175784610e62565b9050600073ffffffffffffffffffffffffffffffffffffffff168373ffffffffffffffffffffffffffffffffffffffff16141580156117c257508273ffffffffffffffffffffffffffffffffffffffff168173ffffffffffffffffffffffffffffffffffffffff1614155b80156117d557506117d38184610cde565b155b1561181757826040517fa9fbf51f00000000000000000000000000000000000000000000000000000000815260040161180e9190611ee5565b60405180910390fd5b811561187957838573ffffffffffffffffffffffffffffffffffffffff168273ffffffffffffffffffffffffffffffffffffffff167f8c5be1e5ebec7d5bd14f71427d1e84f3dd0314c0f7b2291e5b200ac8c7c3b92560405160405180910390a45b505b836004600085815260200190815260200160002060006101000a81548173ffffffffffffffffffffffffffffffffffffffff021916908373ffffffffffffffffffffffffffffffffffffffff16021790555050505050565b6118dd8383611b06565b6118ea6000848484611435565b505050565b6118fa838383611bff565b6119ae57600073ffffffffffffffffffffffffffffffffffffffff168373ffffffffffffffffffffffffffffffffffffffff160361196f57806040517f7e2732890000000000000000000000000000000000000000000000000000000081526004016119669190611f7b565b60405180910390fd5b81816040517f177e802f0000000000000000000000000000000000000000000000000000000081526004016119a59291906126aa565b60405180910390fd5b505050565b600080600090507a184f03e93ff9f4daa797ed6e38ed64bf6a1f0100000000000000008310611a11577a184f03e93ff9f4daa797ed6e38ed64bf6a1f0100000000000000008381611a0757611a0661267b565b5b0492506040810190505b6d04ee2d6d415b85acef81000000008310611a4e576d04ee2d6d415b85acef81000000008381611a4457611a4361267b565b5b0492506020810190505b662386f26fc100008310611a7d57662386f26fc100008381611a7357611a7261267b565b5b0492506010810190505b6305f5e1008310611aa6576305f5e1008381611a9c57611a9b61267b565b5b0492506008810190505b6127108310611acb576127108381611ac157611ac061267b565b5b0492506004810190505b60648310611aee5760648381611ae457611ae361267b565b5b0492506002810190505b600a8310611afd576001810190505b80915050919050565b600073ffffffffffffffffffffffffffffffffffffffff168273ffffffffffffffffffffffffffffffffffffffff1603611b785760006040517f64a0ae92000000000000000000000000000000000000000000000000000000008152600401611b6f9190611ee5565b60405180910390fd5b6000611b8683836000610f5f565b9050600073ffffffffffffffffffffffffffffffffffffffff168173ffffffffffffffffffffffffffffffffffffffff1614611bfa5760006040517f73c6ac6e000000000000000000000000000000000000000000000000000000008152600401611bf19190611ee5565b60405180910390fd5b505050565b60008073ffffffffffffffffffffffffffffffffffffffff168373ffffffffffffffffffffffffffffffffffffffff1614158015611cb757508273ffffffffffffffffffffffffffffffffffffffff168473ffffffffffffffffffffffffffffffffffffffff161480611c785750611c778484610cde565b5b80611cb657508273ffffffffffffffffffffffffffffffffffffffff16611c9e83610eea565b73ffffffffffffffffffffffffffffffffffffffff16145b5b90509392505050565b6000604051905090565b600080fd5b600080fd5b60007fffffffff0000000000000000000000000000000000000000000000000000000082169050919050565b611d0981611cd4565b8114611d1457600080fd5b50565b600081359050611d2681611d00565b92915050565b600060208284031215611d4257611d41611cca565b5b6000611d5084828501611d17565b91505092915050565b60008115159050919050565b611d6e81611d59565b82525050565b6000602082019050611d896000830184611d65565b92915050565b600081519050919050565b600082825260208201905092915050565b60005b83811015611dc9578082015181840152602081019050611dae565b60008484015250505050565b6000601f19601f8301169050919050565b6000611df182611d8f565b611dfb8185611d9a565b9350611e0b818560208601611dab565b611e1481611dd5565b840191505092915050565b60006020820190508181036000830152611e398184611de6565b905092915050565b6000819050919050565b611e5481611e41565b8114611e5f57600080fd5b50565b600081359050611e7181611e4b565b92915050565b600060208284031215611e8d57611e8c611cca565b5b6000611e9b84828501611e62565b91505092915050565b600073ffffffffffffffffffffffffffffffffffffffff82169050919050565b6000611ecf82611ea4565b9050919050565b611edf81611ec4565b82525050565b6000602082019050611efa6000830184611ed6565b92915050565b611f0981611ec4565b8114611f1457600080fd5b50565b600081359050611f2681611f00565b92915050565b60008060408385031215611f4357611f42611cca565b5b6000611f5185828601611f17565b9250506020611f6285828601611e62565b9150509250929050565b611f7581611e41565b82525050565b6000602082019050611f906000830184611f6c565b92915050565b600080600060608486031215611faf57611fae611cca565b5b6000611fbd86828701611f17565b9350506020611fce86828701611f17565b9250506040611fdf86828701611e62565b9150509250925092565b600060208284031215611fff57611ffe611cca565b5b600061200d84828501611f17565b91505092915050565b61201f81611d59565b811461202a57600080fd5b50565b60008135905061203c81612016565b92915050565b6000806040838503121561205957612058611cca565b5b600061206785828601611f17565b92505060206120788582860161202d565b9150509250929050565b600080fd5b600080fd5b7f4e487b7100000000000000000000000000000000000000000000000000000000600052604160045260246000fd5b6120c482611dd5565b810181811067ffffffffffffffff821117156120e3576120e261208c565b5b80604052505050565b60006120f6611cc0565b905061210282826120bb565b919050565b600067ffffffffffffffff8211156121225761212161208c565b5b61212b82611dd5565b9050602081019050919050565b82818337600083830152505050565b600061215a61215584612107565b6120ec565b90508281526020810184848401111561217657612175612087565b5b612181848285612138565b509392505050565b600082601f83011261219e5761219d612082565b5b81356121ae848260208601612147565b91505092915050565b600080600080608085870312156121d1576121d0611cca565b5b60006121df87828801611f17565b94505060206121f087828801611f17565b935050604061220187828801611e62565b925050606085013567ffffffffffffffff81111561222257612221611ccf565b5b61222e87828801612189565b91505092959194509250565b6000806040838503121561225157612250611cca565b5b600061225f85828601611f17565b925050602061227085828601611f17565b9150509250929050565b7f4e487b7100000000000000000000000000000000000000000000000000000000600052602260045260246000fd5b600060028204905060018216806122c157607f821691505b6020821081036122d4576122d361227a565b5b50919050565b7f4d696e74206e6f7420656e61626c656400000000000000000000000000000000600082015250565b6000612310601083611d9a565b915061231b826122da565b602082019050919050565b6000602082019050818103600083015261233f81612303565b9050919050565b7f65786365656473206d617820737570706c790000000000000000000000000000600082015250565b600061237c601283611d9a565b915061238782612346565b602082019050919050565b600060208201905081810360008301526123ab8161236f565b9050919050565b7f4e6f7420636f727265637420616d6f756e740000000000000000000000000000600082015250565b60006123e8601283611d9a565b91506123f3826123b2565b602082019050919050565b60006020820190508181036000830152612417816123db565b9050919050565b7f736f6c64206f7574000000000000000000000000000000000000000000000000600082015250565b6000612454600883611d9a565b915061245f8261241e565b602082019050919050565b6000602082019050818103600083015261248381612447565b9050919050565b7f4e487b7100000000000000000000000000000000000000000000000000000000600052601160045260246000fd5b60006124c482611e41565b91507fffffffffffffffffffffffffffffffffffffffffffffffffffffffffffffffff82036124f6576124f561248a565b5b600182019050919050565b60006060820190506125166000830186611ed6565b6125236020830185611f6c565b6125306040830184611ed6565b949350505050565b600081905092915050565b600061254e82611d8f565b6125588185612538565b9350612568818560208601611dab565b80840191505092915050565b60006125808285612543565b915061258c8284612543565b91508190509392505050565b600081519050919050565b600082825260208201905092915050565b60006125bf82612598565b6125c981856125a3565b93506125d9818560208601611dab565b6125e281611dd5565b840191505092915050565b60006080820190506126026000830187611ed6565b61260f6020830186611ed6565b61261c6040830185611f6c565b818103606083015261262e81846125b4565b905095945050505050565b60008151905061264881611d00565b92915050565b60006020828403121561266457612663611cca565b5b600061267284828501612639565b91505092915050565b7f4e487b7100000000000000000000000000000000000000000000000000000000600052601260045260246000fd5b60006040820190506126bf6000830185611ed6565b6126cc6020830184611f6c565b939250505056fea26469706673582212201f7cf9e3ae30342d4456982827eb763a2de0cc153c47aede3bc6475d48a8ee9f64736f6c634300081b0033",
  "linkReferences": {},
  "deployedLinkReferences": {}
}